:020000040800F2
:100000002005002045010008490A0008410A0008AF
:10001000450A0008390800085F12000800000000C7
:10002000000000000000000000000000F50B0008C8
:100030003D08000800000000DD0A00085D0100081E
:100040005F0100085F0100085F0100085F01000810
:100050005F0100085F0100085F0100085F01000800
:100060005F0100085F0100085F0100085F010008F0
:100070005F0100085F0100085F0100085F010008E0
:100080005F0100085F0100085F0100085F010008D0
:100090005F0100085F0100085F0100085F010008C0
:1000A0005F0100085F0100085F0100085F010008B0
:1000B0005F0100085F0100085F0100085F010008A0
:1000C0005F0100085F0100085F0100085F01000890
:1000D0005F010008F50F00085F0100085F010008DC
:1000E0005F0100085F0100085F0100085F01000870
:1000F0005F0100085F0100085F0100085F01000860
:100100005F0100085F0100085F0100085F0100084F
:100110005F0100085F0100085F0100085F0100083F
:100120005F0100085F0100085F0100085F0100082F
:10013000DFF80CD000F050FB00480047891400089D
:10014000200500200648804706480047FEE7FEE7F6
:10015000FEE7FEE7FEE7FEE7FEE7FEE7FEE7FEE777
:10016000E10C000831010008D2B201E000F8012BD7
:10017000491EFBD270470022F6E710B513460A4627
:1001800004461946FFF7F0FF204610BD2DE9F04761
:1001900091460F4680460446002614F8015B2DB1B7
:1001A00000F032FA0068405DC007F6D12B2D02D076
:1001B0002D2D18D0641E4A463946204600F028FAF4
:1001C00027B13968A14201D1C7F8008071054FF00D
:1001D00002040BD54042002803DD01F053F804600F
:1001E000A007BDE8F08746F48066E4E70028F8DA67
:1001F00001F048F804606FF00040F2E72DE9FE4F8F
:10020000804681EA0300C00F0C46009021F00041B7
:1002100023F00045B8EB0200A94105D24046214633
:1002200090461C460B46024623F00040104347D040
:10023000270DC7F30A00C3F30A510290401A019038
:1002400040286BDAC3F3130040F4801B00989246F9
:1002500020B10023D2EB030A63EB0B0B0198594644
:10026000C0F14002504600F0ADF906460D4650463A
:100270005946019A00F0B5F910EB080061410024DD
:1002800087EA115284EAE7731A4340D0009A62B3B6
:10029000019A012A4FEA075215DC001B61EB0201AB
:1002A0004FF0004202EA0752CDE90042001C41F53E
:1002B000801132462B4600F040FA03B0BDE8F08FC3
:1002C00040462146F9E7001B61EB0201001C41F5A5
:1002D000801300185B412018A2F5001747EB0301BB
:1002E00040EAD570B6196D4111E06D084FEA360647
:1002F00045EAC0754FEA0752001B61EB0201001C82
:1003000041F5801149084FEA300000195141324649
:100310002B4603B0BDE8F04F00F000BA0098012270
:1003200040000023D0EB020263EBE073009821460B
:100330004FEAE074B8EB000061EB0401E9E783F0F9
:1003400000435BE781F0004158E72DE9FE4F81EA69
:10035000030404F0004421F0004100944FF0000B2E
:1003600023F0004350EA01045ED052EA03045BD05C
:10037000C3F30A54C1F30A552C44A4F2F334019494
:10038000A0FB0254C1F3130141F48011C3F3130322
:1003900043F4801301FB024400FB034E840A970AD6
:1003A00044EA815447EA8357A4FB076802958D0A03
:1003B00005FB07854FEA932C04FB0C542705029D8F
:1003C0004FEA065847EA1637B5EB08056EEB070CFF
:1003D000870E920E47EA811742EA8312A7FB0201B9
:1003E000B6EB0B0164EB00042B0D43EA0C335E18F3
:1003F00044EB1C50DA465146E7FB0201C5F31304F7
:100400004FEA0B3343EA14534FEA0432019C43EAA8
:100410000603A4F10C040294009CCDE900B400F0A2
:100420008CF903B0BDE8F08F00200146F9E72DE913
:10043000F04D81EA030404F0004B21F0004514461E
:100440004FF0000A23F0004150EA050220D054EAA0
:1004500001021DD0C5F30A570246C5F31303C1F3C9
:100460001300C1F30A5640F4801543F48013A7EB40
:100470000608101BD64608F2FD3873EB050002D3C0
:1004800008F1010801E092185B41B8F1000F03DAAE
:1004900000200146BDE8F08D00204FF48011064693
:1004A00084460EE0171B73EB050705D3121B63EBA5
:1004B000050306434CEA010C49084FEA3000921844
:1004C0005B4150EA0107EDD152EA030012D082EA03
:1004D000040083EA0501084305D0101BAB4106D296
:1004E0000122002306E000224FF0004302E06FF0FB
:1004F000010253101AEB06004CEB085110EB0A00F6
:1005000041EB0B01BDE8F04D00F008B90EB5C10F8D
:1005100080EAE0700844CA07002140F233438DE8C6
:100520000E000A460B4600F008F903B000BD00F0CB
:10053000004220F00040C10DC0F3160040F400005E
:100540007F2901DA00207047962903DCC1F196016A
:10055000C84001E096398840002AF4D040427047F4
:1005600001F0004330B421F0004150EA010206D00E
:100570000A0DA2F56072C1F31301002A02DC30BC3F
:1005800000207047440F44EAC104C100E01830BCA9
:1005900000EBC25000F08BB830B50B46014600208E
:1005A0002022012409E021FA02F59D4205D303FA35
:1005B00002F5491B04FA02F52844151EA2F10102B6
:1005C000F1DC30BD202A04DB203A00FA02F10020E1
:1005D00070479140C2F1200320FA03F31943904081
:1005E0007047202A06DBCB17203A41FA02F043EA93
:1005F000E07306E041FA02F3D040C2F120029140DC
:1006000008431946704700000048704784170008E7
:100610002DE9F05F82460078002715468B460AF1E7
:100620000104B946302801D09DB113E014F8010B44
:100630000127782803D0582801D045B10AE00DB130
:10064000102D07D10027102514F8010B02E0082512
:1006500000E00A250026B0460EE005FB080005FB79
:1006600006F1012701EB10461FFA80F8B6F5803F2E
:1006700000D3B94614F8010B294600F0CFF8002842
:10068000EBDABBF1000F05D00FB1641E00E0544659
:10069000CBF80040B9F1000F06D000F0F3FD0221C5
:1006A0000160C81EBDE8F09F48EA0640FAE700294D
:1006B000A8BF7047401C490008BF20F001007047E8
:1006C00010B4B0FA80FC00FA0CF050EA010404BF48
:1006D00010BC704749B1CCF1200421FA04F411FA9E
:1006E0000CF118BF012121430843A3EB0C01CB1DE2
:1006F0004FEA00614FEA102042BF002010BC704753
:1007000000EBC35010440029A4BF10BC7047401C2C
:10071000490008BF20F0010010BC704710B5141E3E
:1007200073F1000408DA401C41F1000192185B41AA
:100730001A4301D120F0010010BD2DE9F04D924681
:100740009B4611B1B1FA81F202E0B0FA80F2203298
:100750009046FFF737FF04460F4640EA0A0041EA99
:100760000B0153465A46084313D0114653EA010081
:1007700019D0C8F14002504600F040F805460E4638
:10078000504659464246FFF71DFF084305D0012059
:1007900004E020463946BDE8F08D0020054346EAD6
:1007A000E0762C4337430A986305E40AA0EB08007F
:1007B0000022FD0A44EA47540A3002D500200146CF
:1007C000E9E7010510196941DDE9084500196941AA
:1007D000BDE8F04DA2E70000064C074D06E0E068DA
:1007E00040F0010394E8070098471034AC42F6D378
:1007F000FFF7A2FC88170008A8170008202A04DBCE
:10080000203A21FA02F00021704721FA02F3D04089
:10081000C2F1200291400843194670473A2800D29D
:10082000303820F02002412A01D3A2F1370088425B
:1008300001D34FF0FF30704700BFFEE77047000064
:100840002DE9F14F82B00298FFF760FE804600224A
:100850000D4BFFF7ECFD064600220C4BFFF775FD34
:10086000044600220A4BFFF7C9FC8246FFF778FED8
:1008700001900198FFF75BFE84B22146054800F025
:1008800020FBBDE8FE8F000000E0704000409F406C
:1008900000407F40000400402DE9F0410246002561
:1008A0000026002000230024002791F803C00CF04C
:1008B0000F0591F803C00CF0100CBCF1000F03D031
:1008C00091F802C04CEA050591F800C0BCF1000F98
:1008D00031D0146800202BE04FF0010C0CFA00F32B
:1008E000B1F800C00CEA03069E4220D183004FF00D
:1008F0000F0C0CFA03F7BC4305FA03FC4CEA0404A2
:1009000091F803C0BCF1280F06D14FF0010C0CFA8E
:1009100000FCC2F814C00AE091F803C0BCF1480F13
:1009200005D14FF0010C0CFA00FCC2F810C0401CBD
:100930000828D1D31460B1F800C0BCF1FF0F34DD3A
:10094000546800202EE000F1080C4FF0010808FA6E
:100950000CF3B1F800C00CEA03069E4221D18300DB
:100960004FF00F0C0CFA03F7BC4305FA03FC4CEAFA
:10097000040491F803C0BCF1280F05D100F1080C64
:1009800008FA0CF8C2F8148091F803C0BCF1480FC3
:1009900007D100F1080C4FF0010808FA0CF8C2F872
:1009A0001080401C0828CED35460BDE8F0810000C0
:1009B000F0B50A46002300240021002500F000467F
:1009C000B6F1004F02D11D4EF16901E01B4E716876
:1009D000C0F3034583B200F44016B6F5401F08D1BA
:1009E00021F07061154E766826F07066134F7E60B8
:1009F00012E000F48016B6F5801F06D1032606FA31
:100A000005F4A14341F0706106E0460D360103FA9A
:100A100006F6B14341F0706122B1460D360103FA8A
:100A200006F6314300F00046B6F1004F02D1034E06
:100A3000F16101E0014E7160F0BD00000000014075
:100A400000BFFEE700BFFEE7704708B525208DF820
:100A5000000000208DF801008DF8020001208DF8C3
:100A60000300684600F002F808BD000070B50021E0
:100A700000230F22C47804B3154C246804F4E06406
:100A8000C4F5E064210AC1F10403CA40447804FAC1
:100A900003F184781440214309010E4C0678A155D6
:100AA000047804F01F050124AC4005786D11AD00F9
:100AB00005F1E025C5F8004109E0047804F01F05C0
:100AC0000124AC40044D0678761145F8264070BDEF
:100AD0000CED00E000E400E080E100E07047000081
:100AE00029B1064AD2690243044BDA6104E0034AA1
:100AF000D2698243014BDA61704700000010024066
:100B000029B1064A92690243044B9A6104E0034A00
:100B100092698243014B9A617047000000100240C5
:100B200030B500210022002400232D4D6D6805F012
:100B30000C0121B1042905D0082923D105E0294D54
:100B4000056022E0274D05601FE0254D6D6805F426
:100B50007012234D6D6805F48034022505EB924236
:100B60001CB9214D554305600BE01D4D6D6805F422
:100B700000351DB11C4D5543056002E0194D55432C
:100B8000056002E0174D056000BF00BF144D6D68A1
:100B900005F0F0010909154D6B5C0568DD40456005
:100BA0000F4D6D6805F4E061090A104D6B5C4568F6
:100BB000DD4085600A4D6D6805F46051C90A0B4D32
:100BC0006B5C4568DD40C560054D6D6805F44041CE
:100BD000890B074D6B5CC568B5FBF3F5056130BD4E
:100BE0000010024000127A0000093D0000000020C1
:100BF00010000020704710B500F002F810BD000092
:100C00000CB50020019000903348006840F480301B
:100C10003149086000BF3048006800F4003000909F
:100C20000198401C0190009818B90198B0F5A06F88
:100C3000F1D12948006800F4003010B10120009083
:100C400001E0002000900098012843D1234800686B
:100C500040F01000214908600846006820F00700B5
:100C600008600846006840F0020008601A484068C2
:100C7000194948600846406848600846406840F4A2
:100C8000806048600846406820F47C104860084650
:100C9000406840F4E81048600846006840F0807002
:100CA000086000BF0C48006800F000700028F9D010
:100CB0000948406820F0030007494860084640683A
:100CC00040F00200486000BF0348406800F00C009C
:100CD0000828F9D10CBD000000100240002002409D
:100CE00010B51348006840F001001149086008463B
:100CF0004068104908400E494860084600680E499F
:100D000008400B4908600846006820F4802008600D
:100D10000846406820F4FE0048604FF41F008860D9
:100D2000FFF769FF4FF000600449086010BD000044
:100D3000001002400000FFF8FFFFF6FE08ED00E0A3
:100D400000B589B001210220FFF7CAFE0121092068
:100D5000FFF7D6FE1020ADF8040018208DF807002C
:100D600003208DF8060001A91B48FFF795FD01211E
:100D70001A48FFF71DFE01211948FFF719FE44F636
:100D80001F60ADF81C004720ADF818000020ADF83A
:100D90001E00ADF81A0006A9124800F095F8602070
:100DA000ADF808000120ADF80A000020ADF80E00F3
:100DB000ADF8100002A90B4800F02EF808210948F0
:100DC00000F076F80121074800F00EF801210548EF
:100DD00000F016F809B000BD000C01400002300020
:100DE00000081A000004004021B1028842F080028D
:100DF000028004E002884FF67F731A400280704739
:100E000021B1028842F00102028004E002884FF61C
:100E1000FE731A400280704770B500240022002340
:100E2000058C4FF6FE7635400584028C8388048B52
:100E30004FF68F752C40B51E2C400D882C43751E27
:100E40002A400D892A434D882A43144DA8420BD0CD
:100E5000134DA84208D0134DA84205D0124DA84208
:100E600002D0124DA84213D14FF6F7752A404D8992
:100E70002A434FF6FB752A408D882A434FF6FF65BB
:100E80002B404FF6FF552B408D892B43CD892B43AB
:100E900083800483CD888586028470BD002C014048
:100EA000003401400040014000440140004801403E
:100EB0000A460021018B4FF6F77319401143018355
:100EC0007047818670470000002202881D4B9842BF
:100ED0000ED01D4B98420BD0B0F1804F08D01B4B69
:100EE000984205D01A4B984202D01A4B984204D12E
:100EF0004FF68F731A404B881A43174B984207D00E
:100F0000164B984204D04FF6FF431A40CB881A4341
:100F100002808B8883850B8803850A4B98420BD00F
:100F2000094B984208D00E4B984205D00D4B984281
:100F300002D00D4B984201D10B7A038601238382A4
:100F400070470000002C01400034014000040040C4
:100F500000080040000C0040001000400014004059
:100F600000400140004401400048014000B585B008
:100F7000012144F20400FFF7C3FD4FF40070ADF807
:100F8000100003208DF8120018208DF8130004A91A
:100F90001648FFF781FC4FF48060ADF81000042084
:100FA0008DF8130004A91148FFF776FC4FF4E130E7
:100FB00000900020ADF80400ADF80600ADF8080080
:100FC000ADF80C000C20ADF80A006946084800F0A6
:100FD000D1F8012240F22551054800F0A6F8012180
:100FE000034800F05FF805B000BD000000080140B4
:100FF0000038014010B540F22551214800F06BF84F
:1010000000283CD01E4800F021F91E491E4A1278E3
:10101000885408461C490978405C24280AD180215C
:101020001848FFF7A8F8242016490870012016492F
:10103000087024E0134814490978405C232819D12A
:1010400010480078242815D10E4910A000F00AF9A4
:1010500012480C49B1F801200280C97881708021C2
:101060000848FFF788F800200749087001200C495C
:10107000087004E004480078401C0349087010BD63
:1010800000380140200000201400002052656365F4
:10109000697665643A2025730A000000A0000020EC
:1010A0001500002021B1828942F40052828104E0BF
:1010B00082894DF6FF731A408281704702460020F4
:1010C000B1F5007F00D100BF13880B400BB10120A8
:1010D00000E00020704770B5024600240023002580
:1010E000002040F66A16B14200D100BFC1F342159C
:1010F00001F01F03012606FA03F3012D02D19689A0
:10110000334006E0022D02D1168A334001E0968A70
:1011100033400C12012606FA04F41688344013B149
:101120000CB1012000E0002070BDF0B503460024A2
:1011300000260025002040F66A17B94200D100BF02
:101140001846C1F3421401F01F06012707FA06F5FD
:10115000012C01D10C3004E0022C01D1103000E050
:1011600014301AB107682F43076002E00768AF43E5
:101170000760F0BD2DE9F04786B005460E46002415
:10118000A24600BFA1460027B08900B100BF2F468C
:101190002C8A4CF6FF700440F08804432C82AC8902
:1011A0004EF6F3100440B088318908437189084332
:1011B0000443AC81AC8A4FF6FF400440B08904433D
:1011C000AC8201A8FFF7ACFC1F48874202D1DDF8D2
:1011D00010A001E0DDF80CA0A88900F4004040B1A7
:1011E0000AEBCA0000EB0A1031684900B0FBF1F8C5
:1011F00007E00AEBCA0000EB0A1031688900B0FB77
:10120000F1F86420B8FBF0F004012009642101FB2F
:101210001089A88900F4004040B1322000EBC900D9
:10122000B0FBF1F000F00700044308E0322000EBCF
:1012300009106421B0FBF1F000F00F0004432C8191
:1012400006B0BDE8F08700000038014001468888FC
:10125000C0F308007047C1F308028280704700BFE6
:10126000FEE700000FB4054B10B503A9044A02982D
:1012700000F01CF810BC5DF814FB000065140008B9
:1012800018000020004870471C00002002E008C839
:10129000121F08C1002AFAD170477047002001E0F0
:1012A00001C1121F002AFBD1704700002DE9FF4F3A
:1012B0008BB09A460F460546002606E025280BD03F
:1012C00052460D9990476D1C761C28780028F5D160
:1012D0000FB03046BDE8F08F0024A04601226049DF
:1012E00000E0044315F8013F203B02FA03F00842F6
:1012F000F7D128782E2817D115F8010F44F00404EF
:101300002A280ED06FF02F022878A0F13001092989
:101310000AD808EB880102EB410100EB01086D1CC3
:10132000F2E757F8048B6D1C287869283ED006DC5C
:101330000028CDD063280BD0642804D136E0732870
:1013400010D075284BD052460D999047761C85E0F9
:1013500017F8040B8DF8000000208DF80100E94615
:10136000012003E057F8049B4FF0FF3061074FF076
:10137000000401D40AE0641C44450DDA8442FADB1F
:1013800019F804100029F6D106E0641C8442FCDB45
:1013900019F804100029F8D1264404E019F8010BCB
:1013A00052460D999047641EF8D257E001CF4FF096
:1013B0000A0B002802DA40422D2102E0210504D563
:1013C0002B218DF82410012103E0E10705D0202115
:1013D000F7E70DF1200908910CE00021F9E701CFB2
:1013E0004FF00A0BF9E75946FFF7D6F801F1300242
:1013F00009F8012D0028F6D1ADEB090000F1200B12
:10140000600701D44FF00108D84502DDA8EB0B00BE
:1014100000E000208046002406E009A85246005D56
:101420000D999047641C761C08988442F5DB04E013
:10143000302052460D999047761CB8F10001A8F172
:101440000108F5DC05E019F8010B52460D999047AB
:10145000761CBBF10001ABF1010BF4DC6D1C34E731
:101460000928010070B504460D46A1B20548FFF7F2
:10147000F2FE00BF80210348FFF720FE0028F9D0CC
:10148000204670BD00380140FFF770FDFFF7DDFA20
:10149000FFF756FC20A0FFF7E5FE2BA0FFF7E2FECA
:1014A00033A0FFF7DFFE39A0FFF7DCFE3EA0FFF719
:1014B000D9FE44A0FFF7D6FE4EA0FFF7D3FE55A0FD
:1014C000FFF7D0FE5AA0FFF7CDFE5DA0FFF7CAFEE2
:1014D00063A0FFF7C7FE66A0FFF7C4FE73A0FFF787
:1014E000C1FE18E07D480078012814D10A220021AD
:1014F0007B48FEF74BFE044621467AA0FFF7B2FE7A
:101500002046FFF79DF90020744908708021744837
:10151000FEF731FE00BFE5E72A2A2A2A2A2A2A2ACC
:101520002A2A2A2A2A2A2A48617264776172652047
:10153000576972696E672A2A2A2A2A2A2A2A2A2A97
:101540002A2A2A2A2A0A0000E888B5E69CBA283204
:101550003730C2B029093C2D2D2D2D2D2D2D3E09C2
:1015600053544D333246313033433854360A000039
:1015700056434328E7BAA2E889B229093C2D2D2D0C
:101580002D2D2D2D3E0935560A00000053494728C0
:10159000E9BB84E889B229093C2D2D2D2D2D2D2D57
:1015A0003E095042340A0000474E4428E8A490E81F
:1015B00089B229093C2D2D2D2D2D2D2D3E09474E6B
:1015C000440A00002A2A2A2A2A2A2A2A2A2A2A2AD5
:1015D0002A2A2A2A2A536572766F2020546573744A
:1015E0002A2A2A2A2A2A2A2A2A2A2A2A2A2A2A2A5B
:1015F0002A0A0000E6B3A2E789B9E78E87E9BB981B
:10160000E8AEA4E8AEBEE7BDAEEFBC9A31313532EC
:1016100030300A00E695B0E68DAEE6A0BCE5BC8FA2
:10162000E58F82E880833A24313230230A000000BB
:10163000E695B0E68DAEE5A4B43A240A00000000B9
:10164000E695B0E68DAE28E888B5E69CBAE8BDAC74
:10165000E58AA8E8A792E5BAA6293A3132300A000D
:10166000E695B0E68DAEE5B0BE3A230A0000000074
:10167000E6B3A8E6848F3AE8AFB7E58AA1E5BF856F
:10168000E68C89E785A7E6A0BCE5BC8FE58F91E9EC
:101690008081E695B0E68DAEE6B58BE8AF95EFBC00
:1016A00081EFBC81EFBC810A000000002A2A2A2AAF
:1016B0002A2A2A2A2A2A2A2A2A2A2A2A2A2A2A2A8A
:1016C0002A2A2A2A2A2A2A2A2A2A2A2A2A2A2A2A7A
:1016D0002A2A2A2A2A2A2A2A2A0A00001500002051
:1016E000A0000020E888B5E69CBAE79BAEE5898DAE
:1016F000E8A792E5BAA6203D202564C2B00A000002
:101700000040404040404040404041414141414014
:1017100040404040404040404040404040404040C9
:101720004005020202020202020202020202020258
:10173000022020202020202020202002020202025D
:1017400002029090909090901010101010101010B5
:1017500010101010101010101010101002020202C1
:101760000202888888888888080808080808080805
:101770000808080808080808080808080202020201
:101780004000000001170008A81700080000002012
:10179000200000008C120008C8170008200000205C
:1017A000000500009C120008000000000102030474
:1017B00001020304060708090204060800000000ED
:0817C000000000000000000021
:0400000508000131BD
:00000001FF
